:100000000C94AD040C94D5040C94D5040C94D50434
:100010000C94D5040C94D5040C94D5040C94D504FC
:100020000C94D5040C94D5040C94D5040C94D504EC
:100030000C94D5040C94D5040C94D5040C94D504DC
:100040000C94A2290C94D5040C94AE2C0C94E02CA6
:100050000C94D5040C94D5040C94D5040C94D504BC
:100060000C943F280C94D5042D2D20534156454423
:10007000202D2D005349474E3A00465245513A2013
:100080002020202047487A004348414E3A00410052
:1000900042004500462F4169727761766500432F23
:1000A0005261636500442F352E332020202000420A
:1000B000414E443A004155544F205345454B004D65
:1000C000414E55414C0042414E44205343414E4E17
:1000D0004552004D4F44453A005341564520534543
:1000E0005454494E47530053415645202620455805
:1000F00049540043414C49425241544520525353C4
:1001000049005349474E203A20004F4646004F4E83
:10011000200042454550533A20004652455155452E
:100120004E4359004348414E4E454C2020004F520B
:100130004445523A20005345545550204D454E55A4
:1001400000524543454956455220420052454345D9
:10015000495645522041004155544F0044495645A7
:100160005253495459004C4F57205349474E414C24
:10017000005253534900414E54454E4E41204200D7
:10018000414E54454E4E412041004155544F0020B0
:10019000202000202020003539343500353830301B
:1001A0000035333632004D696E3A20202020204D34
:1001B00061783A00525353492053455455500042F8
:1001C0004553543A0042414E44205343414E4E451C
:1001D00052004155544F205345454B204D4F444507
:1001E000004155544F204D4F4445204C4F434B0048
:1001F00041202020202020202000422020202020DC
:100200002020200045202020202020202000462FD4
:100210004169727761766500432F526163652020E2
:100220002000442F352E332020202000353934354E
:10023000003538303000353336320042414E443AD2
:10024000004155544F205345454B204D4F444500E8
:100250004D414E55414C204D4F444500534554555A
:1002600050204D454E550044495645525349545926
:10027000004D414E55414C204D4F44450042414EAA
:1002800044205343414E4E4552004155544F205354
:100290004541524348004D4F44452053454C45434A
:1002A00054494F4E0044495341424C454400204577
:1002B0004E41424C454400446976657273697479D5
:1002C0003A004F4B00506F7765723A00426F6F747F
:1002D00020436865636B0028292A2B2C2D2E2F13B1
:1002E00012201121100722081806091905230A1ADD
:1002F000040B1B03240C1C020D1D25010E1E000FF8
:100300001F261415271617A1A2A3A4A5A6A7A8B156
:10031000B2B3B4B5B6B7B8E1E2E3E4E5E6E7E8F1D5
:10032000F2F3F4F5F6F7F8C1C2C3C4C5C6C7C8D125
:10033000D2D3D4D5D6D7D8E916D516C116AD1699CD
:1003400016851671165D16651678168B169E16B1F3
:1003500016C416D716EA164916351621160D16FDBF
:10036000161117251739176C1680169416A816BC87
:1003700016D016E416F8161A163F1664168916AE2D
:1003800016D316F8161D17F21417153C15611586AD
:1003900015AB15D015F515052A9B29912987291D1F
:1003A00029132909299F2803290C2916291F29897E
:1003B0002992299C29052A95288B28812817280FFE
:1003C0002A192A832A8D2A062910291A2984298E76
:1003D000299829022A0C2A1D288F280229142987E6
:1003E0002999290C2A1E2A09261C268E2601271344
:1003F00027862798270B2800000000003E5B4F5BF4
:100400003E3E6B4F6B3E1C3E7C3E1C183C7E3C18B7
:100410001C577D571C1C5E7F5E1C00183C1800FF9B
:10042000E7C3E7FF0018241800FFE7DBE7FF3048C9
:100430003A060E2629792926407F050507407F05C3
:10044000253F5A3CE73C5A7F3E1C1C08081C1C3EBA
:100450007F14227F22145F5F005F5F06097F017FA8
:10046000006689956A606060606094A2FFA294084B
:10047000047E040810207E201008082A1C08081C8E
:100480002A08081E101010100C1E0C1E0C30383ECE
:100490003830060E3E0E06000000000000005F002F
:1004A000000007000700147F147F14242A7F2A12FB
:1004B00023130864623649562050000807030000E1
:1004C0001C2241000041221C002A1C7F1C2A080813
:1004D0003E08080080703000080808080800006026
:1004E000600020100804023E5149453E00427F4012
:1004F0000072494949462141494D331814127F1071
:1005000027454545393C4A494931412111090736BA
:1005100049494936464949291E0000140000004057
:100520003400000008142241141414141400412251
:10053000140802015909063E415D594E7C12111200
:100540007C7F494949363E414141227F4141413EFC
:100550007F494949417F090909013E414151737F62
:100560000808087F00417F41002040413F017F088B
:100570001422417F404040407F021C027F7F0408DC
:10058000107F3E4141413E7F090909063E4151210C
:100590005E7F09192946264949493203017F010333
:1005A0003F4040403F1F2040201F3F4038403F63B6
:1005B0001408146303047804036159494D43007F10
:1005C0004141410204081020004141417F040201E1
:1005D0000204404040404000030708002054547883
:1005E000407F284444383844444428384444287FD1
:1005F000385454541800087E090218A4A49C787F2B
:100600000804047800447D40002040403D007F10F5
:1006100028440000417F40007C047804787C080472
:1006200004783844444438FC182424181824241826
:10063000FC7C08040408485454542404043F442413
:100640003C4040207C1C2040201C3C4030403C442E
:10065000281028444C9090907C4464544C440008EA
:100660003641000000770000004136080002010218
:1006700004023C2623263C1EA1A161123A404020E0
:100680007A38545455592155557941225454784259
:10069000215554784020545579400C1E527212391D
:1006A00055555559395454545939555454580000D6
:1006B000457C410002457D420001457C407D121190
:1006C000127DF0282528F07C545545002054547C98
:1006D000547C0A097F4932494949323A4444443AF0
:1006E000324A4848303A4141217A3A424020780023
:1006F0009DA0A07D3D4242423D3D4040403D3C24C6
:10070000FF2424487E4943662B2FFC2F2BFF092909
:10071000F620C0887E090320545479410000447DAE
:10072000413048484A32384040227A007A0A0A72F8
:100730007D0D19317D2629292F28262929292630A2
:10074000484D4020380808080808080808382F10C5
:10075000C8ACBA2F102834FA00007B000008142A15
:10076000142222142A14085500550055AA55AA55DA
:10077000AAFF55FF55FF000000FF00101010FF00FA
:10078000141414FF001010FF00FF1010F010F014EC
:100790001414FC001414F700FF0000FF00FF1414F1
:1007A000F404FC141417101F10101F101F1414143D
:1007B0001F00101010F0000000001F101010101F7C
:1007C00010101010F010000000FF1010101010108A
:1007D000101010FF10000000FF140000FF00FF00C9
:1007E000001F10170000FC04F41414171017141441
:1007F000F404F40000FF00F714141414141414F794
:1008000000F7141414171410101F101F141414F4EC
:10081000141010F010F000001F101F0000001F1433
:10082000000000FC140000F010F01010FF10FF1486
:100830001414FF141010101F00000000F010FFFF30
:10084000FFFFFFF0F0F0F0F0FFFFFF0000000000FE
:10085000FFFF0F0F0F0F0F3844443844FC4A4A4A39
:10086000347E02020606027E027E0263554941631F
:100870003844443C04407E201E2006027E02029939
:10088000A5E7A5991C2A492A1C4C7201724C304AD2
:100890004D4D303048784830BC625A463D3E49495B
:1008A00049007E0101017E2A2A2A2A2A44445F4403
:1008B0004440514A444040444A51400000FF010333
:1008C000E080FF000008086B6B08361236243606FD
:1008D0000F090F060000181800000010100030402B
:1008E000FF0101001F01011E00191D1712003C3CF1
:1008F0003C3C000000000000000008000201000075
:1009000003040700000000000000000102040810BA
:100910002040800102040810200102040810200475
:100920000404040404040402020202020203030396
:10093000030303000000002300260029000000003C
:1009400000250028002B0000000000240027002ABA
:100950000000140EA117A127102D11241FBECFEFE8
:10096000D8E0DEBFCDBF15E0A0E0B1E0EAE8F2E6F6
:1009700002C005900D92A239B107D9F727E0A2E98C
:10098000B5E001C01D92AA36B207E1F719E0CAE549
:10099000D9E004C02297FE010E940E31C235D10772
:1009A000C9F70E94542D0C9443310C940000AEEB17
:1009B000B5E020E0FC013491332331F02E3121F0F9
:1009C0003D9301962F5FF6CFE22FF0E0E254FA4F0D
:1009D00030838EEB95E008952FEFFC012283108287
:1009E000089560E082E995E00E943E2682E995E064
:1009F0000E94A92440E050E060E070E082E995E0C8
:100A00000E94432161E082E995E00E94492161E072
:100A100070E082E995E00C944F21CF92DF92EF9243
:100A2000FF920F931F93CF93DF936C01EB0121E0B3
:100A30004CE362E082E995E00E94242582E995E09A
:100A40000E94572668EB7BE080E090E00E941B2A22
:100A5000C6010E94F104E0919205F0919305C684CD
:100A6000D78482E995E00E945E21EE24E394F12C84
:100A70000BE010E09C0140E050E060E070E082E9B3
:100A800095E0F601099560E070E082E995E00E944A
:100A90004F2182E995E00E945E21BC016C537109EF
:100AA00077FF02C06F5F7F4F7595679542E050E01A
:100AB00082E995E00E9443218CEC92E00E94D704E9
:100AC000BC0182E995E00E94A12D61E070E082E91D
:100AD00095E00E944F214CE050E060E070E082E938
:100AE00095E00E94432185EC92E00E94D704BC016E
:100AF00082E995E00E94A12D82E995E00E945E21A5
:100B0000BC01625171094CE050E082E995E00E941D
:100B1000432182EC92E00E94D704BC0182E995E077
:100B20000E94A12D44E150E060E070E082E995E090
:100B30000E94432182E995E00E94572687EB92E0CC
:100B40000E94D704BC0182E995E00E94A12D82E9B0
:100B500095E00E9457266AEF70E080E090E00E94E6
:100B60001B2A82E995E00E945E21BC01665371094F
:100B700044E150E082E995E00E94432181E10E9436
:100B8000892A05971CF08EEA92E002C085EA92E07D
:100B90000E94D704BC0182E995E00E94A12D82E960
:100BA00095E00E945E21FE0101900020E9F7319757
:100BB000EC1BFD0B4CE04E9F90014F9F300D11241C
:100BC000BC01621B730B7695679544E250E082E9A5
:100BD00095E00E94432162E082E995E00E9449216C
:100BE000BE0182E995E00E94A12D82E995E00E9474
:100BF000572662EE74E080E090E00E941B2A80E0BD
:100C0000DF91CF911F910F91FF90EF90DF90CF90E8
:100C10000895CF92DF92EF92FF920F931F93CF939D
:100C2000DF93EB01E0919205F0919305C484D584A4
:100C300082E995E00E9462218C0182E995E00E94A0
:100C40005E21EE24E394F12C9C0140E050E060E052
:100C500070E082E995E0F6010995E0919205F09146
:100C60009305C684D78482E995E00E945E210BE05B
:100C700010E09C0140E050E060E070E082E995E027
:100C8000F601099561E082E995E00E94492160E062
:100C900070E082E995E00E944F2182E995E00E9490
:100CA0005E21FE0101900020E9F73197EC1BFD0B5E
:100CB00046E04E9F90014F9F300D1124BC01621BF6
:100CC000730B7695679542E050E082E995E00E94CB
:100CD0004321BE0182E995E00E94A12D61E070E010
:100CE00082E995E0DF91CF911F910F91FF90EF90F6
:100CF000DF90CF900C944F21EF92FF920F931F93B0
:100D0000CF93DF93C62FD0E0E0919205F091930549
:100D10000684F785E02D7E0101E010E025E030E05B
:100D20004AE350E068E770E082E995E00995E091D8
:100D30009205F09193050684F785E02D23E030E0DD
:100D40004BE350E069E770E082E995E00995E091B6
:100D50009205F09193050684F785E02D21E030E0BF
:100D60004CE350E06AE770E082E995E00995DF9195
:100D7000CF911F910F91FF90EF900895DF92EF9226
:100D8000FF920F931F93CF93DF93EC01D62E0E9417
:100D9000F10486E992E00E94D704BC01CE010E94D2
:100DA0000906E0919205F0919305C685D78582E901
:100DB00095E00E945E212AE0D29EA0011124445FAA
:100DC0005F4FEE24E394F12C0AE010E09C0160E018
:100DD00070E082E995E0FE01099561E070E0D110D4
:100DE00002C060E070E082E995E00E944F214DE092
:100DF00050E065E070E082E995E00E9443218AE8D6
:100E000092E00E94D704BC0182E995E00E94A12DE6
:100E100061E070E0F1E0DF1202C060E070E082E9C2
:100E200095E00E944F2147E150E065E070E082E9E3
:100E300095E00E9443218DE792E00E94D704BC0117
:100E400082E995E00E94A12D61E070E022E0D212DB
:100E500002C060E070E082E995E00E944F2141E22B
:100E600050E065E070E082E995E00E94432181E76F
:100E700092E00E94D704BC0182E995E00E94A12D76
:100E800081E10E94892A0597E4F061E070E083E047
:100E9000D81202C060E070E082E995E00E944F2124
:100EA0004BE250E065E070E082E995E00E9443216A
:100EB00087E692E00E94D704BC0182E995E00E9497
:100EC000A12D61E070E0E4E0DE1202C060E070E0BD
:100ED00082E995E00E944F2145E350E065E070E033
:100EE00082E995E00E9443218CE592E00E94D704BC
:100EF000BC0182E995E00E94A12D82E995E0DF9195
:100F0000CF911F910F91FF90EF90DF900C94572697
:100F10002F923F924F925F926F927F928F929F9209
:100F2000AF92BF92CF92DF92EF92FF920F931F93F7
:100F3000CF93DF93CDB7DEB72A970FB6F894DEBF15
:100F40000FBECDBF2C01662E842E922E702EFC82F9
:100F5000EB82DE82CD82B886AF82622F70E080E0C5
:100F600090E01F921F921F922EE12F93A12CB12C83
:100F70006501A39414E6E12EF12C00E010E021E0DD
:100F800030E040E050E00E941D2EC62E82E995E040
:100F90000E9462215C010F900F900F900F90D20180
:100FA00012968C91881609F45BC0D12CE0919205C1
:100FB000F0919305268537853A83298382E995E068
:100FC0000E946221E5E08E9ED0011124B595A7957F
:100FD000BA87A9871D01F4E02F0E311C0EE110E045
:100FE0000C191D09AC014A525109E12CF12C22E0E7
:100FF00030E0B10182E995E0E981FA810995E0915B
:101000009205F0919305A5014C5051094C195D09C9
:101010000684F785E02DEE24E394F12C860122E08E
:1010200030E0B10182E995E00995E0919205F091F7
:101030009305C684D78482E995E00E946221AC01C1
:101040004A52510969857A85695F7F4FE12CF12CFD
:101050000EE110E021E030E082E995E0F60109952B
:10106000611042C0F0E5F91508F090C0D201119668
:101070008C911197891530F511969C9240E050E0C3
:1010800061E070E082E995E00E9455214CE050E07B
:1010900064E270E082E995E00E94432140E150E083
:1010A000672D82E995E00E94102E4CE050E064E349
:1010B00070E082E995E00E9443214AE050E06B81B4
:1010C0007C8160C00091040110E0075F1F4F82E93E
:1010D00095E00E945E210C97081719070CF456C082
:1010E0008CE38093040152C04CE050E06EE170E06C
:1010F00082E995E00E94432140E050E061E070E029
:1011000082E995E00E94552183E991E00E94D7048D
:10111000BC0182E995E00E94A12D4CE050E06EE117
:1011200070E082E995E00E9443214AE050E06D8141
:101130007E8182E995E00E94172E4CE050E065E543
:1011400070E082E995E00E94432140E050E061E0D8
:1011500070E082E995E00E9455214CE050E065E5A1
:1011600070E082E995E00E9443218FE891E00E94BF
:10117000D704BC0182E995E00E94A12D4AE050E02D
:101180006F81788582E995E00E94172E82E995E0CB
:101190000E945726F20182822A960FB6F894DEBF8B
:1011A0000FBECDBFDF91CF911F910F91FF90EF90B8
:1011B000DF90CF90BF90AF909F908F907F906F9077
:1011C0005F904F903F902F900895EF92FF920F9372
:1011D0001F93CF93DF93F62EE42EE9010E94F104D2
:1011E00061E082E995E00E943E2666E082E995E0B2
:1011F0000E94492161E070E082E995E00E944F2160
:1012000040E050E060E070E082E995E00E94432118
:1012100040E150E06E2D82E995E00E94102E61E0E1
:1012200082E995E00E94492140E050E066E470E0E8
:1012300082E995E00E944321B80182E995E00E948D
:10124000A12D62E082E995E00E9449214CE150E045
:1012500066E470E082E995E00E94432161E070E07D
:1012600082E995E00E944F214AE050E0BE0182E908
:1012700095E00E94172E61E082E995E00E944921E5
:1012800081E10E94892A05970CF484C042E150E074
:1012900066E470E082E995E00E94432181E0F8165F
:1012A00059F0F81630F0E2E0FE120FC086E791E048
:1012B00005C08AE891E002C080E891E00E94D7046E
:1012C000BC0182E995E00E94A12D41E050E060E080
:1012D00070E082E995E00E945521E0919205F0913D
:1012E0009305C685D78582E995E00E946221AC010D
:1012F00043515109EE24E394F12C09E010E027E07A
:1013000030E060E070E082E995E0FE01099582E955
:1013100095E00E946221AC014251510961E070E008
:1013200082E995E00E94432160E375E082E995E05F
:101330000E94A12D41E050E060E070E082E995E07C
:101340000E945521E0919205F0919305C685D785BD
:1013500082E995E00E946221AC014950510927E0E1
:1013600030E060E070E082E995E0FE01099582E9F5
:1013700095E00E946221AC014850510961E070E0A3
:1013800082E995E00E94432162E375E082E995E0FD
:101390000E94A12D82E995E0DF91CF911F910F91DD
:1013A000FF90EF900C945726CF92DF92EF92FF922E
:1013B0000F931F93CF93DF93EC01D62E0E94F1047D
:1013C0008CE591E00E94D704BC01CE010E94090681
:1013D000E0919205F0919305C685D78582E995E065
:1013E0000E945E212AE0D29EA0011124445F5F4F3B
:1013F000EE24E394F12C0AE010E09C0160E070E040
:1014000082E995E0FE01099561E070E0D11002C02B
:1014100060E070E082E995E00E944F214DE050E0ED
:1014200065E070E082E995E00E94432187E591E064
:101430000E94D704BC0182E995E00E94A12D61E0E1
:1014400070E0F1E0DF1202C060E070E082E995E058
:101450000E944F2147E150E065E070E082E995E0AD
:101460000E9443218CE491E00E94D704BC0182E9F0
:1014700095E00E94A12D61E070E022E0D21202C04E
:1014800060E070E082E995E00E944F2141E250E087
:1014900065E070E082E995E00E94432181E491E0FB
:1014A0000E94D704BC0182E995E00E94A12D61E071
:1014B00070E082E995E00E944F21E0919205F09161
:1014C0009305C485D58582E995E00E945E216C0173
:1014D00082E995E00E946221AC0145515109EE2458
:1014E000E394F12C0BE010E0960160E070E082E9FB
:1014F00095E0FE01099582E995E00E946221AC0128
:101500004351510965E070E082E995E00E94432172
:1015100064E375E082E995E00E94A12D82E995E0FF
:101520000E946221AC014950510965E070E082E9F6
:1015300095E00E94432167E375E082E995E00E940F
:10154000A12D82E995E0DF91CF911F910F91FF903E
:10155000EF90DF90CF900C945726AF92BF92CF922E
:10156000DF92EF92FF920F931F93CF93DF93C62FDB
:10157000D22F642F70E080E090E01F921F921F92A4
:101580002CE62F93A12CB12C6501A39414E6E12E37
:10159000F12C00E010E021E030E040E050E00E945B
:1015A0001D2EE0919205F0919305A684B784C62E76
:1015B000D12C82E995E00E9462212CE630E02C19C2
:1015C0003D09AC0143515109B6016E5E7F4FE12CDC
:1015D000F12C07E010E082E995E0F50109950F9004
:1015E0000F900F900F90E0919205F0919305A684D3
:1015F000B78482E995E0C130C1F00E946221AC015C
:1016000043515109E12CF12C07E010E0960162E111
:1016100070E082E995E0F5010995E0919205F0917D
:101620009305A484B58482E995E00E946221AC010F
:1016300043515109EE24E394F12C960162E170E0EC
:1016400082E995E0F50109956D2F70E080E090E06A
:101650001F921F921F922CE62F93A12CB12C650193
:10166000A39414E6E12EF12C00E010E021E030E03C
:1016700040E050E00E941D2EE0919205F09193050C
:10168000A684B784C62ED12C82E995E00E946221FF
:101690002CE630E02C193D09AC0149505109B60146
:1016A0006E5E7F4FE12CF12C07E010E082E995E0BF
:1016B000F50109950F900F900F900F90E091920512
:1016C000F0919305C23019F4C685D7851AC0C68536
:1016D000D78582E995E00E946221AC014950510909
:1016E000E12CF12C07E010E0960162E170E082E964
:1016F00095E0FE010995E0919205F0919305C4856E
:10170000D58582E995E00E946221AC0149505109DA
:10171000EE24E394F12C960162E170E082E995E019
:10172000FE01099582E995E0DF91CF911F910F911C
:10173000FF90EF90DF90CF90BF90AF900C94572622
:1017400008954F925F926F927F928F929F92AF9285
:10175000BF92CF92DF92EF92FF920F931F93CF939E
:10176000DF936C01B62E542E422E902EA12E8E2C7D
:101770000E94F10486E391E00E94D704BC01C601F7
:101780000E9409068B2D65E00E948C30192FC92F0D
:10179000D0E0E0919205F09193056684778482E928
:1017A00095E00E945E212AE0129FA0011124445F6F
:1017B0005F4FEE24E394F12C0AE010E09C0160E01E
:1017C00070E082E995E0F3010995F4E0FB1508F477
:1017D00004C1BB24B394C430D10509F4B12C6B2DE2
:1017E000C6010E947C0661E070E0209711F460E081
:1017F00070E082E995E00E944F214DE050E065E005
:1018000070E082E995E00E9443218EE291E00E941F
:10181000D704BC0182E995E00E94A12D442019F073
:1018200084E291E002C08AE191E00E94D704BC0109
:1018300082E995E00E94A12D61E070E0C130D10500
:1018400011F460E070E082E995E00E944F2147E1E9
:1018500050E065E070E082E995E00E94432182E17A
:1018600091E00E94D704BC0182E995E00E94A12D7D
:10187000552019F08EE091E002C08AE091E00E94CC
:10188000D704BC0182E995E00E94A12D61E070E0DF
:10189000C230D10511F460E070E082E995E00E9469
:1018A0004F2141E250E065E070E082E995E00E945E
:1018B000432182E091E00E94D704BC0182E995E0D7
:1018C0000E94A12D87FC51C0E0919205F0919305F3
:1018D000C684D78482E995E00E945E219C012A5249
:1018E0003109E12CF12C08E010E041E250E069E21E
:1018F00070E082E995E0F6010995C82CDD24C7FC6B
:10190000D094E0919205F0919305282D86E028026D
:10191000B0011124625D7F4F0684F785E02DEE242F
:10192000E394F12C27E030E041E250E082E995E0D9
:101930000995E92CFA2C00E010E061E070E00C154C
:101940001D0511F460E070E082E995E00E944F21EE
:10195000F70161917F0182E995E00E94A32D0F5F5D
:101960001F4F0A30110549F706C0692D7A2D82E90B
:1019700095E00E94A12D61E070E0239711F460E0F2
:1019800070E082E995E00E944F214BE250E065E073
:1019900070E082E995E00E94432183EF90E00E948D
:1019A000D704BC0182E995E00E94A12D6B2D70E067
:1019B00082E995E00E944F2145E350E065E070E048
:1019C00082E995E00E94432187EE90E00E94D704CF
:1019D000BC0182E995E00E94A12D82E995E0DF91AA
:1019E000CF911F910F91FF90EF90DF90CF90BF901C
:1019F000AF909F908F907F906F905F904F900C94DE
:101A00005726CF92DF92EF92FF920F931F93CF93BF
:101A1000DF93EC01C62ED42E79010E94F10489EDEA
:101A200090E00E94D704BC01CE010E94090661E04B
:101A300070E082E995E00E944F214CE050E065E0C3
:101A400070E082E995E00E94432183ED90E00E94DE
:101A5000D704BC0182E995E00E94A12D4CE050E042
:101A600066E270E082E995E00E94432182E0C816B8
:101A700049F083E0C81649F081E0C8120FC085EB39
:101A800090E005C086EC90E002C08FEB90E00E94F1
:101A9000D704BC0182E995E00E94A12D44E150E009
:101AA00065E070E082E995E00E9443218FEA90E0D2
:101AB0000E94D704BC0182E995E00E94A12D44E177
:101AC00050E066E270E082E995E00E94432187E2FF
:101AD0008D1518F485EA90E01AC08FE18D1518F481
:101AE0008EE990E014C087E18D1518F484E990E048
:101AF0000EC08FE08D1518F482E990E008C087E0F1
:101B00008D1518F480E990E002C08EE890E00E9404
:101B1000D704BC0182E995E00E94A12D4CE150E080
:101B200065E070E082E995E00E94432188E890E05A
:101B30000E94D704BC0182E995E00E94A12D4CE1EE
:101B400050E066E270E082E995E00E9443216D2D4D
:101B500067706F5F4AE050E082E995E00E94102EC6
:101B600044E250E065E070E082E995E00E944321A4
:101B70008AE790E00E94D704BC0182E995E00E94C8
:101B8000A12D44E250E066E270E082E995E00E9417
:101B900043214AE050E0B70182E995E00E94172E08
:101BA0004CE250E065E070E082E995E00E9443215C
:101BB00084E790E00E94D704BC0182E995E00E948E
:101BC000A12D4CE250E066E270E082E995E00E94CF
:101BD0004321B80182E995E00E94A12D82E995E0B8
:101BE0000E945E218254910997FD0196BC01759572
:101BF000679544E350E082E995E00E94432188E63E
:101C000090E00E94D704BC0182E995E00E94A12DDA
:101C100082E995E0DF91CF911F910F91FF90EF90B6
:101C2000DF90CF900C94572664E082E995E00C9405
:101C300090242F923F924F925F926F927F928F9259
:101C40009F92AF92BF92CF92DF92EF92FF920F934B
:101C50001F93CF93DF9300D000D0CDB7DEB71C0128
:101C60006983142F922EB02E2701CA828A2CFC0180
:101C70008281281709F49DC0821710F483E001C007
:101C80008FEF8093050140E050E061E070E082E971
:101C900095E00E9455214CE050E064E270E082E95A
:101CA00095E00E944321183218F082E292E016C0BB
:101CB000103218F088E192E011C0183118F08EE06F
:101CC00092E00CC0103118F084E092E007C01830A8
:101CD00018F08AEF91E002C080EF91E00E94D704F3
:101CE000BC0182E995E00E94A12D812F8770B4E0AC
:101CF0006B2E712C1C821B82C82ED12CE091920578
:101D0000F0919305EE24E394F12C8B819C818C154A
:101D10009D0511F0E12CF12C0684F785E02D0BE0F8
:101D200010E02EE030E045E150E0B30182E995E0BB
:101D3000099561E070E0EB81FC81EC15FD0511F483
:101D400060E070E082E995E00E944F21B3016C5F92
:101D50007F4F47E150E082E995E00E9443216B818B
:101D60006F5C82E995E00E94A32D8B819C81019696
:101D70009C838B839FE0690E711CEB81FC813897FB
:101D800009F0BCCF4CE050E065E670E082E995E0F8
:101D90000E94432140E050E061E070E082E995E07C
:101DA0000E9455214AE050E0B20182E995E00E948C
:101DB000172E82E995E00E945E214B2C512C612C5C
:101DC000712C0397AA2797FDA095BA2FBF93AF93C5
:101DD0009F938F93A12CB12C6501A39414E6E12E5F
:101DE000F12C00E010E021E030E040E050E0C301E1
:101DF000B2010E941D2EA62EE0919205F09193054E
:101E0000C684D78482E995E00E945E21B12C9C01B2
:101E1000235031092A193B09B5016F5F7F4FE12C2F
:101E2000F12C03E010E041E250E082E995E0F60198
:101E30000995E0919205F09193050684F785E02DD0
:101E4000EE24E394F12C950141E250E061E070E072
:101E500082E995E009951F921F921F92FEE0FF9381
:101E6000A12CB12C6501A39414E6E12EF12C00E025
:101E700010E021E030E040E050E0C301B2010E94F8
:101E80001D2EE0919205F091930566847784C62E0D
:101E9000D12C82E995E00E94622123E0929E5001BC
:101EA0001124E4E0AE0EB11C0EE010E00C191D0987
:101EB000AC014A515109E12CF12C22E030E0B5018E
:101EC00082E995E0F3010995E0919205F09193057F
:101ED0006684778482E995E00E946221AC014C50CF
:101EE00051094C195D09EE24E394F12C860122E09E
:101EF00030E0B50182E995E0F30109950FB6F89459
:101F0000DEBF0FBECDBF9981913009F0DFC0E091F7
:101F10009205F0919305C684D78482E995E00E94EA
:101F20006221AC014A515109E5E09E9EB0011124A5
:101F3000759567956C5F7F4F80910501680F711DE6
:101F400087FD7A95E12CF12C0EE010E021E030E0E5
:101F500082E995E0F6010995FA816F2F70E080E043
:101F600090E01F921F921F922EE02F93A12CB12C74
:101F70006501A39414E6E12EF12C00E010E021E0CD
:101F800030E040E050E00E941D2EC62EE091920508
:101F9000F0919305A684B78482E995E00E946221BE
:101FA000AC014A515109E12CF12C0EE010E022E085
:101FB00030E061E070E082E995E0F501099582E9A1
:101FC00095E00E946221D12CAC014C5051094C1972
:101FD0005D0901E010E022E030E061E070E082E9BC
:101FE00095E00E946621E0919205F0919305A68408
:101FF000B78482E995E00E9462218C0182E995E034
:102000000E945E21A8014A515109BC016350710927
:102010000EE010E022E030E082E995E0F50109955C
:1020200082E995E00E9462210C977C01EC18FD0882
:1020300082E995E00E945E21BC016350710901E0D4
:1020400010E023E030E0A70182E995E00E946621DC
:102050000F900F900F900F9041E050E060E070E023
:1020600082E995E08820B1F00E94552182E995E04F
:102070000E945E218455910997FD0196BC017595DA
:10208000679542E050E082E995E00E94432181EEAD
:1020900091E015C00E94552182E995E00E945E21E1
:1020A0008455910997FD0196BC017595679542E0AD
:1020B00050E082E995E00E94432182ED91E00E9488
:1020C000D704BC0182E995E00E94A12DF101928222
:1020D00082E995E00F900F900F900F90DF91CF91D4
:1020E0001F910F91FF90EF90DF90CF90BF90AF9036
:1020F0009F908F907F906F905F904F903F902F9028
:102100000C945726EF92FF920F931F93CF93DF9378
:102110001F92CDB7DEB77C0169830E94F104F701FD
:1021200011826981623099F485EC91E00E94D704B4
:10213000BC01C7010E9409064CE050E065E070E078
:1021400082E995E00E9443218FEB91E012C084EB7D
:1021500091E00E94D704BC01C7010E9409064CE02F
:1021600050E065E070E082E995E00E94432186EA54
:1021700091E00E94D704BC0182E995E00E94A12D64
:1021800082E995E00E945E2101E010E09C0144E1BB
:1021900050E060E070E082E995E00E94662182E90B
:1021A00095E00E945E217C0182E995E00E94622117
:1021B000AC014B505109970160E070E082E995E075
:1021C0000E94662182E995E00E946221AC0149509B
:1021D000510962E070E082E995E00E94432181EAC2
:1021E00091E00E94D704BC0182E995E00E94A12DF4
:1021F00082E995E00E946221AC014950510967E3F0
:1022000070E082E995E00E9443218CE991E00E9410
:10221000D704BC0182E995E00E94A12D82E995E0F6
:102220000E9462217C0182E995E00E945E21A70163
:1022300049505109BC016951710982E995E00E9438
:10224000432187E991E00E94D704BC0182E995E02F
:102250000E94A12D82E995E00F90DF91CF911F910F
:102260000F91FF90EF900C9457267F928F929F9240
:10227000AF92BF92CF92DF92EF92FF920F931F9394
:10228000CF93DF931F92CDB7DEB7762E842E902E9C
:1022900081E129830E94892A298105970CF4DDC0F8
:1022A000622F70E080E090E01F921F921F9227E75C
:1022B0002F93A3E0AA2EB12CC12CD12C14E6E12E31
:1022C000F12C00E010E021E030E040E050E00E941E
:1022D0001D2EE0919205F0919305A684B784C62E39
:1022E000D12C82E995E00E94622127E730E02C1989
:1022F0003D09AC0143515109B601695F7F4FE12CA3
:10230000F12C09E010E082E995E0F50109950F90C4
:102310000F900F900F90E0919205F091930581E05E
:10232000A684B7847816C9F082E995E00E946221FC
:10233000AC0143515109E12CF12C09E010E027E7F1
:1023400030E067E070E082E995E0F5010995E09101
:102350009205F0919305A484B58482E995E00E94EA
:102360006221AC0143515109EE24E394F12C960112
:1023700067E070E082E995E0F5010995692D70E06C
:1023800080E090E01F921F921F9227E72F93E3E0D7
:10239000AE2EB12CC12CD12C14E6E12EF12C00E094
:1023A00010E021E030E040E050E00E941D2EE0917E
:1023B0009205F0919305A684B784C62ED12C82E9AC
:1023C00095E00E94622127E730E02C193D09AC011D
:1023D00049505109B601695F7F4FE12CF12C09E0AA
:1023E00010E082E995E0F50109950F900F900F90AC
:1023F0000F90E0919205F091930582E0A684B78456
:102400007816C9F082E995E00E946221AC0149503A
:102410005109E12CF12C09E010E027E730E067E0FA
:1024200070E082E995E0F5010995E0919205F0915F
:102430009305A484B58482E995E00E946221AC01F1
:1024400049505109EE24E394F12C960167E070E0C5
:1024500082E995E0F501099589C060E070E082E9C4
:1024600095E00E944F21E0919205F0919305C6847A
:10247000D78482E995E00E946221AC014351510961
:10248000EE24E394F12C03E110E029E130E060E078
:1024900070E082E995E0F601099582E995E00E94F5
:1024A0006221AC014D50510961E070E082E995E094
:1024B0000E94432181E791E00E94D704BC0182E998
:1024C00095E00E94A12D882D90E0A0E0B0E01F9241
:1024D0001F921F9225E62F93A12CB12C6501A39486
:1024E00014E6E12EF12C00E010E021E030E040E0C5
:1024F00050E0BC01CD010E941D2EE0919205F091AB
:102500009305A684B784C62ED12C82E995E00E945B
:10251000622125E630E02C193D09AC0143515109F7
:10252000B601675E7F4FE12CF12C03E110E082E9F8
:1025300095E0F5010995E0919205F0919305A68447
:10254000B78482E995E00E946221AC0143515109B0
:10255000EE24E394F12C960169E170E082E995E0C4
:10256000F50109950F900F900F900F90F3E1F8157A
:1025700078F10E94EC292AEF30E040E050E00E9420
:10258000AC3021E030E06D3771058105910510F028
:1025900020E030E040E050E0B90182E995E00E949F
:1025A000552182E995E00E946221AC014D5051090C
:1025B00062E370E082E995E00E94432186E691E0C3
:1025C0000E94D704BC0182E995E00E94A12D16C0AB
:1025D00081E10E94892A05978CF082E995E00E94AA
:1025E0006221AC014A50510900E010E02CE330E0D8
:1025F00062E370E082E995E00E94662182E995E05D
:102600000F90DF91CF911F910F91FF90EF90DF908E
:10261000CF90BF90AF909F908F907F900C94572653
:10262000EF92FF920F931F93CF93DF931F92CDB73B
:10263000DEB77C018FEFF7018283C70169830E94B7
:10264000F1046981633019F480E592E004C06130DF
:1026500041F481E492E00E94D704BC01C7010E94CA
:10266000090661E070E082E995E00E944F2182E96D
:1026700095E00E945E2101E010E09C0144E150E001
:1026800060E070E082E995E00E94662182E995E0D1
:102690000E945E219C0140E250E060E070E082E92F
:1026A00095E00E9466214CE050E065E070E082E930
:1026B00095E00E94432129E030E04BE050E061E6E4
:1026C00070E082E995E00E949E228BE392E00E94F6
:1026D000D704BC0182E995E00E94A12D11E308E036
:1026E000E02EF12C47E150E0B70182E995E00E942D
:1026F0004321612F82E995E00E94A32DFFE0EF0EB8
:10270000F11C1F5F193371F782E995E00E945E2189
:1027100001E010E09C0144E250E060E070E082E9FA
:1027200095E00E94662182E995E00E945E217C018D
:1027300082E995E00E946221AC014B50510997015A
:1027400060E070E082E995E00E94662182E995E010
:102750000E946221AC014950510962E070E082E9B7
:1027600095E00E94432186E392E00E94D704BC01D9
:1027700082E995E00E94A12D82E995E00E94622104
:10278000AC014950510967E370E082E995E00E948D
:10279000432181E392E00E94D704BC0182E995E0E5
:1027A0000E94A12D82E995E00E9462217C0182E9CC
:1027B00095E00E945E21A70149505109BC01695171
:1027C000710982E995E00E9443218CE292E00E9427
:1027D000D704BC0182E995E00E94A12D82E995E031
:1027E0000F90DF91CF911F910F91FF90EF900C947C
:1027F00057260C942D310C943531DC01ED91FC9170
:102800000190F081E02D0994CF93DF93EC0161E01A
:102810008DE00E94082B80910701882321F060E061
:1028200086E00E94082BBE017695679580E090E0D7
:102830000E941B2A60E08DE00E94082B61E086E088
:10284000DF91CF910C94082B982FE7EDF2E080E018
:102850002491291729F08F5F31968033C9F780E0E2
:1028600008950E94EC292091F4053091F505621B32
:10287000730B6931710548F489E190E0861B970B71
:10288000BC0180E090E00C941B2A0895CF93C82FE0
:1028900060E0813031F48FE00E94082B61E08EE02F
:1028A00005C08EE00E94082B61E08FE00E94082B9B
:1028B000C0931E01CF9108952F923F924F925F9245
:1028C0006F927F928F929F92AF92BF92CF92DF9240
:1028D000EF92FF920F931F93CF93DF93382EA2E3D3
:1028E000FA2E00E010E0C0E0D0E080E10E94892AEA
:1028F000C80FD91F81E10E94892A080F191FFA9475
:10290000A1F722E330E0CE01B9010E949830FB012B
:10291000C801B9010E9498304B0180911C01873099
:1029200061F58091120190911301E817F90720F4E5
:10293000F0931301E0931201809110019091110125
:102940008E179F0720F4F0931101E09310018091FE
:102950000A0190910B018816990620F490920B01C0
:1029600080920A01809108019091090188159905CA
:1029700020F49092090180920801E0901401F090F7
:10298000150100E010E0209116013091170140E0A0
:1029900050E0BF01882777FD8095982F1F921F92E6
:1029A0001F92E4E62E2E2F92A12CB12C6501A39448
:1029B0000E941D2E2B013C01EB01E0900C01F090D8
:1029C0000D0100E010E020910E0130910F0140E078
:1029D00050E0B401882777FD8095982F1F921F92B1
:1029E0001F922F920E941D2E4B015C018B018DB70F
:1029F0009EB708960FB6F8949EBF0FBE8DBF9FEF8F
:102A000039125CC08091FC05882321F0823009F0E6
:102A10004DC04FC0B401882777FD8095982F0E9444
:102A2000652F6B017C01B201882777FD8095982F77
:102A30000E94652FA70196010E94652EA7019601AD
:102A40000E94CA2E20E030E048EC52E40E94193087
:102A50006B017C0120E030E0A9010E9415301816BE
:102A60001CF4C701B60103C0C701B60190580E940B
:102A7000322F62307105BCF08091FB050C171D07E9
:102A800024F4181654F4815006C0C017D1072CF452
:102A900085301CF48F5F8093FB058091FB058823B4
:102AA00029F0853034F430901E0105C0332433946E
:102AB00002C092E0392E832D0E94461481E0381620
:102AC00029F080911C01873009F0E4011C161D06D5
:102AD0003CF4CE01C536D1052CF084E690E002C06E
:102AE00081E090E0DF91CF911F910F91FF90EF90E7
:102AF000DF90CF90BF90AF909F908F907F906F901E
:102B00005F904F903F902F9008958FEF0C945C143E
:102B100060E08CE00E94082B81E090E00E94432A54
:102B200061E08AE00E94082B81E090E00E94432A45
:102B300061E08CE00E94082B81E090E00E94432A33
:102B400060E08CE00E94082B81E090E00C94432A26
:102B500060E08CE00E94082B81E090E00E94432A14
:102B600060E08AE00E94082B81E090E00E94432A06
:102B700061E08CE00E94082B81E090E00E94432AF3
:102B800060E08CE00E94082B81E090E00C94432AE6
:102B900081E090E00E94432A60E08BE00E94082BD5
:102BA00081E090E00C94432A81E090E00E94432A67
:102BB00061E08BE00E94082B81E090E00C94432AB6
:102BC0001F93CF93DF93E82FF0E0EE0FFF1FE9563E
:102BD000FC4FC591D4910E94D41581E090E00E94F1
:102BE000432A0E94C8150E94A8150E94A8150E9499
:102BF000A8150E9488150E94A81514E10E94A81526
:102C00001150E1F70E94D41581E090E00E94432A20
:102C10000E94C8150E94D4150E94C8150E948815EC
:102C20000E94A8150E94A8150E94A8150E94881548
:102C300010E1C0FF03C00E94881502C00E94A815C1
:102C4000D695C7951150A9F70E94A8150E94A815FE
:102C50000E94A8150E94A8150E94D41581E090E05A
:102C60000E94432A60E08BE00E94082B60E08CE029
:102C70000E94082B60E08AE0DF91CF911F910C94B5
:102C8000082B0F931F93CF93DF9361E08DE00E9499
:102C9000CF2A61E08DE00E94082B61E086E00E946F
:102CA000CF2A61E086E00E94082B60E082E00E946B
:102CB000CF2A62E082E00E94082B60E083E00E945D
:102CC000CF2A62E083E00E94082B60E084E00E944B
:102CD000CF2A62E084E00E94082B60E085E00E9439
:102CE000CF2A62E085E00E94082B61E08EE00E941E
:102CF000CF2A61E08FE00E94CF2A81E00E94461433
:102D000061E08BE00E94CF2A61E08AE00E94CF2A36
:102D100061E08CE00E94CF2A80E090E00E94F913ED
:102D20008F3F09F058C061E080E090E00E94FB1303
:102D300060E081E090E00E94FB13609107018BE06E
:102D400090E00E94FB13609106018CE090E00E94ED
:102D5000FB136AE582E090E00E94FB1360E083E0F1
:102D600090E00E94FB136CED84E090E00E94FB1366
:102D700060E085E090E00E94FB136AE375E08CED73
:102D800095E00E9426310CED15E0C4E1D0E0F80199
:102D900061918F01CE010E94FB132196CE31D105A6
:102DA000B1F76091FC0586E090E00E94FB136AE5B4
:102DB00087E090E00E94FB1360E088E090E00E94D2
:102DC000FB136CED89E090E00E94FB1360E08AE069
:102DD00090E00E94FB1380E090E00E94F913809342
:102DE0001C0181E090E00E94F9138093FE050E948F
:102DF000E0158091FE058093F9058BE090E00E943C
:102E0000F91391E0811101C090E0909307018CE0EB
:102E100090E00E94F91391E0811101C090E090933D
:102E200006010CED15E0C4E1D0E0CE010E94F913DB
:102E3000F80181938F012196CE31D105B1F783E05E
:102E400090E00E94F913C82F82E090E00E94F913ED
:102E50002C2F30E0322F2227282B3093170120937C
:102E6000160185E090E00E94F913C82F84E090E0FD
:102E70000E94F9132C2F30E0322F2227282B309379
:102E800015012093140186E090E00E94F9138093CD
:102E9000FC0588E090E00E94F913C82F87E090E0DD
:102EA0000E94F9132C2F30E0322F2227282B309349
:102EB0000F0120930E018AE090E00E94F913C82FC1
:102EC00089E090E00E94F9132C2F30E0322F222766
:102ED000282B30930D0120930C0181E08093E905AC
:102EE0006CED75E080E096E00E940D0518168CF4FC
:102EF0008DE00E943E2B61E0892B09F060E08DE0BF
:102F00000E94082B64E670E080E090E00E941B2A9B
:102F1000EFCF26E040E855E260E070E08DEC96E00F
:102F20000E944C2C81E10E94892A059714F410928A
:102F3000FC0560E08DE0DF91CF911F910F910C9423
:102F4000082B80E096E00C94EC041F93CF93DF9362
:102F500084E690E00E94041464E670E080E090E073
:102F60000E941B2A84E690E00E94041462E070E054
:102F70008DEC96E00E94FD136091FE0512E0160FA5
:102F80008DEC96E00E94E72BCCEDD5E069916623AD
:102F900061F0160F772767FD70958DEC96E00E9423
:102FA000FD1385E0C63ED80789F763E070E08DEC3D
:102FB00096E00E94FD13612F8DEC96E0DF91CF919A
:102FC0001F910C94E72B6F927F928F929F92AF92FA
:102FD000BF92CF92DF92EF92FF920F931F93CF9306
:102FE000DF931F92CDB7DEB783E00E943E2B892B83
:102FF000B9F51092F0051092F1051092F2051092B9
:10300000F30582E390E00E94041464E670E080E03F
:1030100090E00E941B2A82E390E00E94041464E680
:1030200070E080E090E00E941B2A10E083E00E94A4
:103030003E2B892B19F41A3009F02CC5B0901B01D6
:1030400080911C01811103C081E080931C011A3022
:1030500008F4BAC486E080931C018FEF80931A01B4
:103060001092FA0585E00E943E2B892B19F486E028
:1030700080931C018091E90560911C01811105C0BC
:1030800080911A01681709F4DDC01092E9056330D8
:1030900009F42CC548F4613009F44AC0623009F0E3
:1030A000CDC060931B0131C0663009F46BC067303E
:1030B00009F0C4C0E2E3F0E0F0931701E0931601D9
:1030C0004CE251E050931501409314012CED30E097
:1030D00030931301209312018AE590E0909311013F
:1030E00080931001F0930F01E0930E0150930D01B6
:1030F00040930C0130930B0120930A019093090136
:103100008093080183E08093E6051092FF05E7EDC8
:10311000F2E0E491E093FE051092E8051092E705D5
:1031200081E08093EA0580E096E00E94821086C0EC
:1031300080E580931D011092E8051092E7056093E9
:10314000F8051092F0051092F1051092F205109218
:10315000F30560911C0180E096E00E9410138091BD
:103160001B01823021F080911A01873031F481E017
:1031700090E00E94F9138093FE0580911C018093DA
:103180001B015CC06091FE0581E090E00E94FB1392
:1031900060911B0180E090E00E94FB1360910701A9
:1031A0008BE090E00E94FB13609106018CE090E0C0
:1031B0000E94FB130CED15E084E1E82EF12CF801E0
:1031C00061918F01C7010E94FB13FFEFEF1AFF0A05
:1031D0002EE1E216F10499F76091FC0586E090E09B
:1031E0000E94FB134091FE05E42FF0E0EE0FFF1F5D
:1031F000E95CFC4F259134910CED15E060911B01C9
:1032000080E096E00E94010D15E084E690E00E94C7
:10321000041464E670E080E090E00E941B2A1150E4
:10322000A1F768EB7BE080E090E00E941B2A809190
:103230001B0180931C0181E08093E90580911C01B2
:1032400080931A0180911C01883009F03EC0809162
:10325000FE05E82FF0E0EE0FFF1FE95CFC4F259123
:103260003491E82FF0E0E95FFC4F44910CED15E05C
:103270006091FC0580E096E00E94E5080E948515BB
:103280008093FD0582E00E945C14082F81E00E947B
:103290005C14282F4091FD0560911E0180E096E0AE
:1032A0000E94351183E00E943E2B019709F029C44A
:1032B00082E00E943E2B019709F023C484E00E9423
:1032C0003E2B019709F01DC4D9CF843009F04CC0C2
:1032D0001091FC0501E01093FC05612F80E096E061
:1032E0000E94D4090E94851582E00E945C14282F58
:1032F00081E029830E945C142981482F60911E017E
:1033000080E096E00E94AD0A83E00E943E2B019788
:1033100051F482E00E943E2B019729F484E00E9440
:103320003E2B0197F9F283E00E943E2B892B09F492
:10333000FDC382E00E943E2B892B09F0EFC31150A0
:1033400013300CF4F5C310E082E390E00E94041403
:1033500068EC70E080E090E00E941B2A0111BBCF76
:1033600080911B0180931C0180911C01982F9D7FEF
:10337000913009F091C10E9431140E94851580930B
:10338000FD052091E7053091E80590E0821793074D
:1033900008F4C9019093E8058093E7058091FE0544
:1033A0000E9424148093FF0580911C01833009F052
:1033B0007EC0C090EC05D090ED05E090EE05F09059
:1033C000EF0588EEC80E83E0D81EE11CF11C0E94B8
:1033D000EC29C616D706E806F90628F48091FD0503
:1033E000833308F4A9C382E00E943E2B892B39F570
:1033F0000E94EC296093F0057093F1058093F2052B
:103400009093F30582E390E00E94041468EC70E06E
:1034100080E090E00E941B2A8091FE058F5F8093E0
:10342000FE059091FF059F5F90331CF49093FF057C
:1034300002C01092FF05803310F01092FE0584E068
:103440000E943E2B892B29F50E94EC296093F00500
:103450007093F1058093F2059093F30582E390E079
:103460000E94041468EC70E080E090E00E941B2A47
:103470008091FE0581508093FE059091FF0591504B
:1034800097FD9FE29093FF05803318F08FE28093C1
:10349000FE058091060181110AC0E091FF05FF271A
:1034A000E7FDF095E952FD4FE491E093FE05809130
:1034B0001C01813009F098C06091E7057091E80522
:1034C00080E090E00E94632F2DEC3CEC4CE45FE345
:1034D0000E9419300E94322F20911D0130E02617E2
:1034E000370714F460931D012091EB05211152C0A0
:1034F0002091F805211122C03091FD0520911D0178
:103500002317E0F481E08093EB050E94EC2960939F
:10351000F0057093F1058093F2059093F30584E62E
:1035200090E00E94041464E670E080E090E00E9465
:103530001B2A84E690E00E9404142CC01092F80527
:103540002091FF0530911901230F2093FF052033AF
:103550002CF060931D011092FF0507C027FF09C0E2
:1035600060931D018FE28093FF051092E805109291
:10357000E70580911D01853008F485E080931D01E9
:10358000E091FF05FF27E7FDF095E952FD4FE4913B
:10359000E093FE0582E00E943E2B892B29F084E017
:1035A0000E943E2B892B01F582E00E943E2B892B45
:1035B00009F0CFC281E08093190182E390E00E947C
:1035C000041468EC70E080E090E00E941B2A81E027
:1035D0008093F8051092EB051092F0051092F1051A
:1035E0001092F2051092F3058090F0059090F1058D
:1035F000A090F205B090F305E8E88E0EE3E19E1E80
:10360000A11CB11C0E94EC29C090F005D090F105DE
:10361000E090F205F090F30586169706A806B90625
:1036200050F4C114D104E104F10429F08091FD05A6
:10363000833308F090C2C114D104E104F10471F0A5
:103640000E94EC29F0E3CF0EF5E7DF1EE11CF11C30
:10365000C616D706E806F90608F47DC24091FE05B5
:10366000E42FF0E0EE0FFF1FE95CFC4FE590F490D3
:10367000AA24A3948091EB05811101C0A12CC090D4
:103680001D010091FD052091FF0560911C0180E066
:1036900096E00E94190EEFC0823019F0873009F0D1
:1036A000EAC08091EA05882351F01092EA058091E2
:1036B000FE050E94E0158091FE058093F9050E94A9
:1036C00031140E9485158093FD0570911C017230A4
:1036D00079F4813568F09C0133274091E7055091DA
:1036E000E8054217530720F43093E8052093E705D7
:1036F0002091FE05E22FF0E0E95FFC4F0491E22FFC
:10370000F0E0EE0FFF1FE95CFC4FE590F490A09015
:103710001001B0901101C0901201D090130161E02E
:10372000773009F060E0282F4091FF0580E096E0B7
:103730000E9488078091FF058F3224F48F5F809369
:10374000FF0574C01092FF0580911C01873009F0BD
:103750006DC08091E6059FEF980F9093E60581116B
:1037600065C06091120180911301609316018093EE
:10377000170180911001909111018D37910510F47E
:103780008CED90E0909315018093140182E090E01D
:103790000E94FB136091170183E090E00E94FB13ED
:1037A0006091140184E090E00E94FB136091150188
:1037B00085E090E00E94FB1381E10E94892A059731
:1037C0005CF160910A0180910B0160930E0180937E
:1037D0000F0180910801909109018D37910510F436
:1037E0008CED90E090930D0180930C0187E090E0C8
:1037F0000E94FB1360910F0188E090E00E94FB1390
:1038000060910C0189E090E00E94FB1360910D0132
:103810008AE090E00E94FB1380E090E00E94F913A0
:1038200080931C0188EE93E00E94041482E00E94C1
:103830003E2B892BB1F482E390E00E94041468ECE3
:1038400070E080E090E00E941B2A8FEF80931A01C5
:103850001092FF0581E08093EA051092E80510922E
:10386000E705E091FF05FF27E7FDF095E952FD4FE1
:10387000E491E093FE0580911C01853009F05FC062
:1038800080E096E00E94A00B66246A94762CF12CCE
:10389000DD24D3946DE7C62E70E2B72EE7E0AE2E9E
:1038A000F6E09F2E88248394E62C0CED15E0209101
:1038B0000601409107016F2D80E096E00E94A10B68
:1038C00010E5115009F478C183E00E943E2B019766
:1038D00089F482E00E943E2B019761F484E00E940B
:1038E0003E2B019739F464E670E080E090E00E949E
:1038F0001B2AE7CF83E00E943E2B892B09F08DC164
:1039000022E0F21609F46FC12F150CF463C1F11017
:1039100058C18091060188258093060182E390E0DA
:103920000E94041466E970E080E090E00E941B2A87
:103930008FEF6816780609F4A3C1D110B5CF809136
:10394000FE059091F905981709F4B1C10E94E015A0
:103950008091FE058093F9050E94EC296093F4059F
:103960007093F5058093F6059093F7058091180103
:10397000882309F49CC11092180184E690E00E940B
:10398000041464E670E080E090E00E941B2A84E664
:1039900090E00E94041464E670E080E090E00E94F1
:1039A0001B2A84E690E00F90DF91CF911F910F9139
:1039B000FF90EF90DF90CF90BF90AF909F908F904F
:1039C0007F906F900C940414BA9443E0E42E15E0B9
:1039D00054E0D52E01E062E0C62E22E0B216E1F0FE
:1039E0002B1554F0BB2089F081E0B81224C0C0929E
:1039F0001C01B092EA051FC0E3E0BE1681F0F4E0BE
:103A0000BF1219C010931C0116C000931C01009333
:103A1000F8051092EB050FC0E0921C010CC081E18B
:103A20000E94892A05971CF0D0921C0104C01093B3
:103A30001C0134E0B32EFB2C6B2D80E096E00E943D
:103A4000BE0683E00E943E2B892BD9F382E00E94C0
:103A50003E2B892BB1F384E00E943E2B892B89F306
:103A600022E3A22EAA9421F183E00E943E2B01972B
:103A7000C9F482E00E943E2B0197A1F484E00E94E9
:103A80003E2B019779F464E670E080E090E00E94BC
:103A90001B2AE8CF64E670E080E090E00E941B2AD9
:103AA0001F5FC4CA83E00E943E2B892B09F057C0D8
:103AB00083E00E943E2B892B21F080911B01809393
:103AC0001C0184E690E00E94041462E370E080E050
:103AD00090E00E941B2A84E690E00E94041462E3B6
:103AE00070E080E090E00E941B2AB7CA0E94EC2997
:103AF0006093F0057093F1058093F2059093F305C0
:103B000028CB80911B0180931C011092F00510922C
:103B1000F1051092F2051092F305C9C084E00E94ED
:103B20003E2B892B09F00CCC1F5F0ACC00E008CC9F
:103B300017FF0ACC12E008CC0E94A5170E94EC29BE
:103B40006093EC057093ED058093EE059093EF057F
:103B50004ACC8FEF30CD88E080931C017FCD82E08E
:103B60000E943E2B892B51F4BA9481E10E94892A4C
:103B7000059754F423E0B21207C01AC084E00E94F3
:103B80003E2B892B09F4B39484E08B152CF0B7FEFF
:103B900004C094E0B92E01C0B12C82E390E00E94F1
:103BA000041468EC70E080E090E00E941B2A15CFBE
:103BB0003EEFB32EBF0CE8CF80911B0180931C0118
:103BC000BECE81E0F81252C0809107018F2580930C
:103BD0000701A4CEE3E0FE1679F0F4E0FF1246C040
:103BE00090921C0118C02FEF621A720A8AE06816C0
:103BF00071040CF058C092CE1AE089E190E00E9466
:103C0000041469E170E080E090E00E941B2A1150EA
:103C1000A1F7A0921C01D12C81CE82E00E943E2B04
:103C2000892B79F4EFEF6E167E0611F4FA941EC01C
:103C3000F301E452FA4F80818F5F8E37A4F0B08297
:103C400015C084E00E943E2B892B81F4FFEF6F1694
:103C50007F0611F4F3940AC0F301E452FA4F808115
:103C60008150803214F0808301C0C08224E02F157F
:103C70002CF0F7FE53CE44E0F42E50CEF12C4ECE75
:103C800083E00E943E2B892B09F44CCE82E00E94F7
:103C90003E2B892B09F446CE84E00E943E2B892BD3
:103CA00009F440CE4ACE66246A94762C37CE0F9023
:103CB000DF91CF911F910F91FF90EF90DF90CF9008
:103CC000BF90AF909F908F907F906F9008952F92AC
:103CD0003F924F925F926F927F928F929F92AF929C
:103CE000BF92CF92DF92EF92FF920F931F93CF93E9
:103CF000DF9300D000D0CDB7DEB74C017C836B835F
:103D00006A015901C8018701AC014C195D0957FFCF
:103D100003C051954195510995016B817C81261B0A
:103D2000370B37FF03C031952195310922242394A5
:103D3000312C2417350714F0212C312C2114310497
:103D400059F03A2D2B2D5C01832F922F3B812C8132
:103D5000DC82CB82C32ED22EAB81BC81AA16BB06DD
:103D60005CF43C2D2D2D6C01832F922F3B812C81F7
:103D7000BC82AB82A32EB22E2501EB81FC814E1AB0
:103D80005F0A3C016C187D0877FE03C07194619452
:103D90007108720157FE03C0FFEFEF1AFF0AF59496
:103DA000E794C816D9062CF421E030E03A83298341
:103DB00024C06FEF7FEF7A8369831FC0D401ED9138
:103DC000FC910480F581E02D980121143104D9F093
:103DD0004B815C81B601C4010995E618F708F7FE2E
:103DE00006C0E981FA81CE0EDF1EE40CF51C2B81A2
:103DF0003C812F5F3F4F3C832B836B817C81A616D8
:103E0000B706E4F604C0A6016B817C81E4CF0F9075
:103E10000F900F900F90DF91CF911F910F91FF9016
:103E2000EF90DF90CF90BF90AF909F908F907F905A
:103E30006F905F904F903F902F9008956F927F9278
:103E40008F929F92AF92BF92CF92DF92EF92FF92AA
:103E50000F931F93CF93DF93EC015B016A0139014C
:103E60004801E881F9810284F385E02D87010995F5
:103E7000E881F981A601480D591D4150510902847C
:103E8000F385E02D9301B501CE010995E881F98113
:103E90000084F185E02D9401A601B501CE010995BC
:103EA000E881F981B501660D771D615071090084C3
:103EB000F185E02D9401A601CE010995DF91CF9106
:103EC0001F910F91FF90EF90DF90CF90BF90AF9038
:103ED0009F908F907F906F900895EF92FF920F9335
:103EE0001F93DC01ED91FC91240F351F2150310906
:103EF0000680F781E02D780189019B0109951F91CA
:103F00000F91FF90EF900895EF92FF920F931F9300
:103F1000DC01ED91FC91260F371F215031090680FD
:103F2000F781E02D78018A0109951F910F91FF908B
:103F3000EF9008956F927F928F929F92AF92BF926F
:103F4000CF92DF92EF92FF920F931F93CF93DF9365
:103F50005C014A0169013801EB01C60ED71ECC1580
:103F6000DD0574F4D501ED91FC910084F185E02D1F
:103F700087019301A401BE01C50109952196EFCFE8
:103F8000DF91CF911F910F91FF90EF90DF90CF9035
:103F9000BF90AF909F908F907F906F900895EF9219
:103FA000FF920F931F93DC01ED91FC9111971A96EC
:103FB0000D911C911B9718962D913C911997068491
:103FC000F785E02D7B0140E050E060E070E009956E
:103FD0001F910F91FF90EF9008950895FC011382B7
:103FE000128286E495E0918380837583648357838E
:103FF00046837187608753874287158A15861486A2
:104000001786168621E0248B8FEF9FEF938B828B90
:10401000918B808B268B178A08952F923F924F9217
:104020005F926F927F928F929F92AF92BF92CF9248
:10403000DF92EF92FF920F931F93CF93DF93CDB751
:10404000DEB72C970FB6F894DEBF0FBECDBF9C87AE
:104050008B873A0118870F83FA86E986CD82DC01C7
:1040600018968D919C911997681779070CF09EC04E
:104070001A968D919C911B97481759070CF096C082
:104080008C2C912CCB01B6E0CB9E800D911D112480
:10409000181619060CF08AC0C401E3E0880F991FB6
:1040A000EA95E1F7840F951F181619060CF07EC0EB
:1040B000AB85BC8557968C91811103C0203B08F0DD
:1040C0002F5F5B016B011C8257EF452E53E0552E8D
:1040D000461A570AB5E02B9F400C511C1124EC8165
:1040E000E53031F0F201EA0DFB1D24912B8301C074
:1040F0001B827A82698213011E823B8130FF13C0CA
:10410000AB85BC85ED91FC91BD81B13031F404806B
:10411000F581E02D2F81388519C00684F785E02DC3
:10412000EF80F8841EC0E985FA852F813885E21773
:10413000F307F9F0AB85BC85ED91FC91BD81B13001
:1041400059F40480F581E02D29853A85A101B50156
:104150008B859C8509950DC00684F785E02DE98443
:10416000FA848401940149815A81B6018B859C852A
:104170000995EB81E695EB83FE81FF5FFE83298144
:104180003A81280D391D3A8329833FEF231A330AD8
:10419000F83009F0B2CF4C814F5F4C83C80CD91C6A
:1041A0008FEFA81AB80A463009F099CF2C960FB6AF
:1041B000F894DEBF0FBECDBFDF91CF911F910F915D
:1041C000FF90EF90DF90CF90BF90AF909F908F9037
:1041D0007F906F905F904F903F902F900895CF9277
:1041E000EF92FF920F931F93CF93DF93EC01262F53
:1041F0006A3049F42C898E859F8538E0239F800D95
:10420000911D112432C06D30A1F1EA88FB88088924
:1042100019894E855F856C857D85CC880E940D202F
:104220002C89422F50E08C859D8536E0239F800DA0
:10423000911D11249D878C872E892223D1F06AEF4E
:1042400064039001659F300D112468857985260FE0
:10425000371F281739076CF4F3E0440F551FFA9500
:10426000E1F78E859F85840F951F9F878E871D861A
:104270001C8681E090E0DF91CF911F910F91FF901C
:10428000EF90CF900895FC01758764875787468724
:104290000895611101C061E0FC01648B0895FC0187
:1042A000738B628B718B608B0895FC01718B608BBB
:1042B000538B428B0895FC0185890895FC0180850C
:1042C00091850895FC018285938508950F931F932E
:1042D000CF93DF93EC018D89823061F08330D9F088
:1042E000813009F0C8C0EC81FD81E41BF50B3197EA
:1042F000DB0118C08C819D81DC01A61BB70BBD01C1
:104300008E819F81FC01E41BF50BAF0141505109E7
:10431000621B730BB0C0AE81BF81A61BB70BA21B83
:10432000B30BFA01F7FD05C18C819D81E817F907F0
:104330000CF0FFC0B7FF04C02A0F3B1FA0E0B0E0A5
:104340008E819F81AD01420F531F841795071CF486
:104350009C012A1B3B0B121613060CF0EAC0422FDD
:104360008A2F86958695869590E8899FE00DF11DA8
:104370001124E15DFE4FA77069F158E05A1B852FAB
:1043800090E0EC01C95DDE4F6881251760F4DC0127
:10439000A21BB1098FEF90E00A2E02C09595879578
:1043A0000A94E2F768230130110539F048F0023031
:1043B000110551F48081862706C08081862B03C0B9
:1043C0006095808186238083451708F4B2C0451B21
:1043D000E058FF4F4830A0F102301105A9F4DF0189
:1043E000842F9C9190959C93A058BF4F8850883003
:1043F000C0F788EF840F869586958695B0E88B9FE9
:10440000E00DF11D112419C081E00130110509F002
:1044100080E0982F9195EF01842F9883C058DF4F4B
:1044200088508830D0F788EF840F869586958695DA
:1044300090E8899FE00DF11D1124E058FF4F47706F
:10444000442309F476C0A42FB0E0A15EBE4F9C9136
:104450000130110541F050F00230110509F069C03A
:104460008081892706C08081892B03C09095808137
:10447000892380835EC057FD5CC08E819F81481771
:1044800059070CF056C077FF04C0260F371F60E0B5
:1044900070E08C819D81FB01E20FF31F8E179F0757
:1044A0001CF49C01261B370B121613060CF041C09E
:1044B000CA0157FD0796E3E095958795EA95E1F7E0
:1044C0009695982F882797958795815D9E4F860FA3
:1044D000971F4770552761E070E001C0660F4A954D
:1044E000EAF7462F0130110541F088F0023011053E
:1044F00001F5FC01280F391F15C0FC01280F391FD9
:10450000E217F307B1F08081842B8193F9CF609596
:10451000FC01280F391FE217F30759F08081862329
:104520008193F9CFE217F30721F0808184278193EB
:10453000F9CFDF91CF911F910F9108950F931F93A2
:10454000CF93DF93FC018589823069F08330E1F0FD
:10455000813009F082C0C481D581C41BD50BC21B38
:10456000D30BDB0117C084819581DC01A61BB70B3F
:10457000BD016150710986819781DC01A41BB50BD7
:10458000AD01421B530B69C0A681B781A61BB70BB7
:104590001197EA01B7FD08C186819781A817B9076D
:1045A0000CF002C1D7FF04C02C0F3D1FC0E0D0E0CB
:1045B00084819581AE01420F531F841795071CF427
:1045C0009C012C1B3D0B121613060CF0EDC0CD0107
:1045D000B7FD079643E0959587954A95E1F796953F
:1045E000982F882797958795815D9E4F8C0F9D1FEB
:1045F000A770BB2741E050E00A2E01C0440F0A9487
:10460000EAF7642F0130110549F098F002301105E6
:1046100009F0CAC0FC01280F391F17C0FC01280F80
:10462000391FE217F30709F4BFC08081862B8193FD
:10463000F8CF4095FC01280F391FE217F30709F462
:10464000B3C0808184238193F8CFE217F30709F484
:10465000ABC0808186278193F8CF77FDA5C0848188
:104660009581681779070CF09FC057FF04C0240F8D
:10467000351F40E050E086819781FA01E20FF31F79
:104680008E179F071CF49C01241B350B1216130672
:104690000CF08AC0522F842F869586958695FB0153
:1046A000B0E88B9FE00DF11D1124E15DFE4F4770D6
:1046B00069F168E0641B862F90E0EC01C95DDE4F74
:1046C0004881261760F4DC01A21BB1098FEF90E04E
:1046D0000A2E02C0959587950A94E2F74823013087
:1046E000110539F048F00230110551F4808184271A
:1046F00006C08081842B03C0409580818423808301
:10470000561708F451C0561BE058FF4F5830A0F11F
:1047100002301105A9F4DF01852F9C9190959C939F
:10472000A058BF4F88508830C0F788EF850F869516
:1047300086958695B0E88B9FE00DF11D112419C078
:1047400081E00130110509F080E0982F9195EF018B
:10475000852F9883C058DF4F88508830D0F788EF76
:10476000850F86958695869590E8899FE00DF11DC9
:104770001124E058FF4F57705523B1F0A52FB0E03A
:10478000A15EBE4F9C910130110539F048F0023016
:10479000110551F48081892706C08081892B03C0CF
:1047A0009095808189238083DF91CF911F910F9114
:1047B0000895CF92DF92EF92FF920F931F93CF93C2
:1047C000DF937C018B01EA01690177FDA0C00E94A3
:1047D0005E21081719070CF09AC0D7FD98C0C701D1
:1047E0000E946221C817D9070CF091C0C7010E942E
:1047F0005B21823009F07FC0F701848195819C01A3
:10480000201B310B89010150110986819781FC0120
:10481000EC1BFD0BEF0121970BC0813049F4F70130
:10482000848195818C1B9D0BE8018C01015011093D
:10483000F1E0CF16D10431F010F132E0C316D1040B
:10484000E1F165C0FE01D7FD379683E0F595E79568
:104850008A95E1F7F695FE2FEE27F795E795E00F9D
:10486000F11FE15DFE4FC770DD2781E090E00C2E67
:1048700001C0880F0A94EAF79081982B3AC0FE0194
:10488000D7FD3796A3E0F595E795AA95E1F7F6955C
:10489000FE2FEE27F795E795E00FF11FE15DFE4F44
:1048A000C770DD2781E090E00C2E01C0880F0A94CC
:1048B000EAF78095908198231CC0FE01D7FD3796BA
:1048C00063E0F595E7956A95E1F7F695FE2FEE27FB
:1048D000F795E795E00FF11FE15DFE4FC770DD270B
:1048E00081E090E00C2E01C0880F0A94EAF79081D5
:1048F000982790830CC0833009F08FCFF701868111
:104900009781801B910B8E01EC01219791CFDF9154
:10491000CF911F910F91FF90EF90DF90CF9008956E
:104920001F93CF93DF93EC01162F40E450E060E833
:1049300070E00E94EE1F8EE595E0998388838FEFEB
:104940008A8F8E8F8C8F8B8F1D8FDF91CF911F91D0
:10495000089580E094E0EFE2F1E0DF019C011D9218
:1049600021503040E1F70895FC01878D882339F00C
:104970006EBD00000DB407FEFDCF8EB5089588E032
:1049800090E030E8A2A1B3A14C9121A52095242369
:104990002C93A0A1B1A120A5432F462321F04C9137
:1049A000422B4C9304C04C91209524232C93A2A11C
:1049B000B3A12C9141A5242B2C933695019711F787
:1049C00008951F93CF93DF93EC01162F8A8D8F3FAD
:1049D00009F1ECA1FDA180819AA5892B8083EEA12C
:1049E000FFA190818BA5809589238083ECA1FDA1F7
:1049F00090818AA5809589238083CE010E94B4246A
:104A0000ECA1FDA180819AA5892B8083DF91CF91B4
:104A10001F910895888D682F772767FD709583E033
:104A200096E00E94892760E083E096E00E943627A6
:104A3000612F83E096E00E94362783E096E0DF91C5
:104A4000CF911F910C949E270F931F93CF93DF93C9
:104A5000EC01162F022F698F488F8A8D8F3F09F442
:104A600077C061E08C8D0E94CF2A61E08E8D0E941C
:104A7000CF2A8E8D992787FD9095FC01E15EF64F38
:104A8000E491F0E0EE0FFF1FE35CF64F25913491C7
:104A90003DA32CA3FC01E55FF64F84918AA78C8D82
:104AA000992787FD9095FC01E15EF64FE491F0E0D7
:104AB000EE0FFF1FE35CF64F259134913FA32EA329
:104AC000FC01E55FF64F84918BA78F8D811134C077
:104AD00061E08A8D0E94CF2A61E08B8D0E94CF2AEF
:104AE0008B8D992787FD9095FC01E15EF64FE4914F
:104AF000F0E0EE0FFF1FE35CF64F259134913BA3EE
:104B00002AA3FC01E55FF64F849189A78A8D992736
:104B100087FD9095FC01E15EF64FE491F0E0EE0F29
:104B2000FF1FE35CF64F2591349139A328A3FC01C4
:104B3000E55FF64F849188A78F8D882369F00E94E6
:104B40006C298CB58C7F8CBD8DB581608DBD04C00A
:104B500083E096E00E9475270023E1F061E08D8DEF
:104B60000E94CF2A61E08D8D0E94082B61E070E0E9
:104B700080E090E00E941B2A60E08D8D0E94082B4F
:104B80006AE070E080E090E00E941B2A61E08D8D79
:104B90000E94082B6EEACE010E94E12465EDCE0151
:104BA0000E94E12460E8CE010E94E12468EACE017F
:104BB0000E94E1246FE3CE010E94E12463EDCE0167
:104BC0000E94E12460E0CE010E94E12460E4CE0175
:104BD0000E94E1246DE8CE010E94E124113011F41D
:104BE00060E101C064E1CE010E94E12460E2CE01F7
:104BF0000E94E12460E0CE010E94E12461EACE013E
:104C00000E94E12468ECCE010E94E1246AEDCE010D
:104C10000E94E12462E1CE010E94E12461E8CE011C
:104C20000E94E124113011F46FE901C06FECCE0154
:104C30000E94E12469EDCE010E94E124113011F4BB
:104C400062E201C061EFCE010E94E1246BEDCE0172
:104C50000E94E12460E4CE010E94E12464EACE01D6
:104C60000E94E12466EACE010E94E1246FEACE01AF
:104C7000DF91CF911F910F910C94E1241F93CF935B
:104C8000DF93EC01611105C0898D813021F41FE9AA
:104C900003C010E001C01FEC61E8CE010E94E124D6
:104CA000612FCE01DF91CF911F910C94E124DF920F
:104CB000EF92FF920F931F93CF93DF93EC0161E28A
:104CC0000E94E12460E0CE010E94E1246FE7CE0162
:104CD0000E94E12462E2CE010E94E12460E0CE0164
:104CE0000E94E12467E0CE010E94E1248A8D8F3F7B
:104CF00031F1ECA1FDA180819AA5892B8083EEA1E1
:104D0000FFA180819BA5892B8083ECA1FDA19081CF
:104D10008AA58095892380830FE211E0F8016191D3
:104D20008F01CE010E94B424F5E00F321F07B1F7C6
:104D3000ECA1FDA180819AA5892B808337C0D090FA
:104D4000B8008CE08093B8000FE211E0688D7727FF
:104D500067FD709583E096E00E948927E091030645
:104D6000F09104060190F081E02D60E483E096E08C
:104D70000995E12CF12CF801EE0DFF1D608183E017
:104D800096E00E9436278FEFE81AF80AE0E1EE1667
:104D9000F10489F783E096E00E949E27005F1F4F91
:104DA000F5E00F321F0791F6D092B800DF91CF9156
:104DB0001F910F91FF90EF90DF900895809133063F
:104DC00090E020913406821B9109089520913406C9
:104DD00080913306281750F4E22FF0E0EB5CF94F96
:104DE000808190E02F5F2093340608958FEF9FEF2E
:104DF0000895E091340680913306E81730F4F0E02E
:104E0000EB5CF94F808190E008958FEF9FEF08955C
:104E10000895CF92DF92EF92FF920F931F93CF935B
:104E2000DF937C01CB018A0120910F06222389F0B8
:104E3000EB016B01C40ED51ECC15DD0569F069913F
:104E4000D701ED91FC910190F081E02DC70109950A
:104E5000F3CF642F0E941628C801DF91CF911F91D4
:104E60000F91FF90EF90DF90CF900895CF93DF9355
:104E70001F92CDB7DEB7698320910F062223D1F0B0
:104E800020911006203240F021E030E0FC01338315
:104E9000228380E090E015C080911106E82FF0E0B9
:104EA000EE5EF94F998190838F5F80931106809316
:104EB000100605C061E0CE0101960E94162881E02F
:104EC00090E00F90DF91CF910895FC011382128240
:104ED00048EE53E060E070E0448355836683778357
:104EE00086E795E0918380830895109234061092AE
:104EF000330610921106109210060C94A52781E03B
:104F000080930F06609332061092110610921006DD
:104F100008950C947F270F93062F21E040911006EF
:104F200062E176E0809132060E94C327109211065A
:104F30001092100610920F060F91089561E00C94E4
:104F40008B2783E096E00C9465271092C20681E0DF
:104F50008093C0061092BF0661E082E10E94082B98
:104F600061E083E10E94082BE9EBF0E080818E7F15
:104F7000808380818D7F808388E48093B80085E47E
:104F80008093BC0008950F93413208F046C0909181
:104F9000C2069111FCCF92E09093C2060093C00626
:104FA0009FEF9093550610929A0640939906FB0145
:104FB0006BE976E0DB019A2F961B941718F4919118
:104FC0009D93F9CF1092C1069091C106880F892B4D
:104FD0008093C1068091BF06813041F41092BF06D4
:104FE0008091C1068093BB0085EC01C085EE809363
:104FF000BC00222321F08091C2068230E1F380912F
:1050000055068F3F61F080915506803251F08091B6
:105010005506803341F483E007C081E005C080E09D
:1050200003C082E001C084E00F910895613298F4DA
:105030002091C206243089F460937706FC0189E749
:1050400096E0DC012A2F281B261718F421912D93B6
:10505000F9CF80E0089581E0089582E0089585ED1C
:105060008093BC008091BC0084FDFCCF1092C206EE
:10507000089585EC8093BC001092C20608951F929B
:105080000F920FB60F9211242F933F934F935F937C
:105090006F937F938F939F93AF93BF93EF93FF9300
:1050A0008091B900887F803609F49CC068F5883209
:1050B00009F45BC090F4803109F454C038F48823BB
:1050C00009F4F5C0883009F44DC0F5C0883109F401
:1050D0004CC0803209F45DC0EEC0803409F468C071
:1050E00048F4803309F455C0883309F0E4C0809354
:1050F0005506A8C0803509F44FC0883509F45DC055
:10510000883409F0D8C0D5C0883909F4C6C0A8F4DD
:10511000883709F467C038F4883609F463C08037EB
:1051200009F460C0C8C0883809F4B7C0803909F4F0
:105130005FC0803809F0BFC05BC0803B09F485C008
:1051400038F4803A09F466C0883A09F47EC0B3C0E6
:10515000803C09F4A6C0883C09F4A3C0883B09F44C
:1051600089C0A9C08091C10610C090919A06809113
:105170009906981770F5E0919A0681E08E0F80935A
:105180009A06F0E0E556F94F80818093BB0085ECEC
:1051900085C0809355068DC0E0919A0681E08E0F00
:1051A00080939A068091BB00F0E0E556F94F80832A
:1051B00090919A06809199066DC0E0919A0681E0DF
:1051C0008E0F80939A068091BB00F0E0E556F94F70
:1051D00080838091C00681116CC081E08093BF06FE
:1051E00084EA60C083E08093C20610925606CFCF57
:1051F00080915606803208F050C0E091560681E05A
:105200008E0F809356068091BB00F0E0E95AF94F6B
:105210008083BDCF80915606803230F4E0915606EF
:10522000F0E0E95AF94F10820E942F28609156064B
:1052300070E0E091BB06F091BC0687E596E0099529
:10524000109256060E94392836C084E08093C20628
:105250001092780610927706E091BD06F091BE0696
:10526000099580917706811105C081E080937706CA
:1052700010927906E091780681E08E0F809378068F
:10528000F0E0E758F94F80818093BB009091780659
:1052900080917706981708F47ACF85E88093BC0050
:1052A0000AC085EC8093BC001092C20604C0109224
:1052B00055060E942F28FF91EF91BF91AF919F91CA
:1052C0008F917F916F915F914F913F912F910F90AF
:1052D0000FBE0F901F901895CF93CFB7F894809181
:1052E000C306811127C0E9E2F9E08491E5E1F9E024
:1052F0009491E82FF0E0EE0FFF1FE95BF64FA591C8
:10530000B4918C91892321F461E08AE00E94082BFA
:1053100061E08AE00E94CF2A8CB580618CBD8CB59B
:1053200080648CBD61E08DE00E94CF2A61E08BE05B
:105330000E94CF2A8091C3068F5F8093C306CFBFA0
:10534000CF9108951F920F920FB60F9211242F93B1
:105350003F938F939F93AF93BF938091C506909196
:10536000C606A091C706B091C8063091C40623E0D6
:10537000230F2D3720F40196A11DB11D05C026E88D
:10538000230F0296A11DB11D2093C4068093C5066C
:105390009093C606A093C706B093C8068091C9062D
:1053A0009091CA06A091CB06B091CC060196A11DA2
:1053B000B11D8093C9069093CA06A093CB06B09303
:1053C000CC06BF91AF919F918F913F912F910F90FC
:1053D0000FBE0F901F9018952FB7F8946091C506D7
:1053E0007091C6068091C7069091C8062FBF089598
:1053F0003FB7F8948091C9069091CA06A091CB0658
:10540000B091CC0626B5A89B05C02F3F19F0019698
:10541000A11DB11D3FBF6627782F892F9A2F620FDC
:10542000711D811D911D42E0660F771F881F991F16
:105430004A95D1F70895CF92DF92EF92FF92CF93E2
:10544000DF936B017C010E94F829EB01C114D104A8
:10545000E104F10489F00E94642E0E94F8296C1B7B
:105460007D0B683E734090F381E0C81AD108E108D3
:10547000F108C851DC4FEACFDF91CF91FF90EF9058
:10548000DF90CF9008958230910538F0880F991FF2
:10549000880F991F05970197F1F70895789484B5BF
:1054A000826084BD84B5816084BD85B5826085BD20
:1054B00085B5816085BDEEE6F0E080818160808306
:1054C000E1E8F0E0108280818260808380818160E9
:1054D0008083E0E8F0E0808181608083E1EBF0E0B0
:1054E000808184608083E0EBF0E080818160808354
:1054F000EAE7F0E08081846080838081826080833D
:105500008081816080838081806880831092C10067
:1055100008958E3008F08E50877020912F0590E40A
:10552000299F90011124822B80937C0080917A0026
:10553000806480937A0080917A0086FDFCCF809110
:1055400078002091790090E0922B0895833081F0CB
:1055500028F4813099F08230A1F008958730A9F0C5
:105560008830B9F08430D1F4809180008F7D03C001
:10557000809180008F7780938000089584B58F7725
:1055800002C084B58F7D84BD08958091B0008F776F
:1055900003C08091B0008F7D8093B0000895CF93B9
:1055A000DF9390E0FC01E55FF64F2491FC01E15EA2
:1055B000F64F8491882349F190E0880F991FFC01F0
:1055C000E95BF64FA591B491835C964FFC01C591C0
:1055D000D4919FB7611108C0F8948C9120958223D3
:1055E0008C93888182230AC0623051F4F8948C91A4
:1055F000322F309583238C938881822B888304C03B
:10560000F8948C91822B8C939FBFDF91CF9108955A
:105610000F931F93CF93DF931F92CDB7DEB7282F41
:1056200030E0F901E950F74F8491F901E55FF64F59
:105630001491F901E15EF64F04910023C9F088232B
:1056400021F069830E94A62A6981E02FF0E0EE0F25
:10565000FF1FE35CF64FA591B4919FB7F8948C912E
:10566000611103C01095812301C0812B8C939FBFD2
:105670000F90DF91CF911F910F910895CF93DF93FA
:10568000282F30E0F901E950F74F8491F901E55FE7
:10569000F64FD491F901E15EF64FC491CC2391F01D
:1056A00081110E94A62AEC2FF0E0EE0FFF1FED5CA7
:1056B000F64FA591B4912C912D2381E090E021F437
:1056C00080E002C080E090E0DF91CF9108950E94D9
:1056D0002131FC01818D228D90E0805C9F4F821BE7
:1056E00091098F7399270895FC01918D828D9817E8
:1056F00031F0828DE80FF11D858D90E008958FEFD8
:105700009FEF0895FC01918D828D981761F0828D35
:10571000DF01A80FB11D5D968C91928D9F5F9F73E5
:10572000928F90E008958FEF9FEF089586E09DE2BD
:10573000892B49F080E090E0892B29F00E94062D0A
:1057400081110C9400000895FC01848DDF01A80FE5
:10575000B11DA35ABF4F2C91848D90E001968F7399
:105760009927848FA689B7892C93A089B1898C91B8
:1057700080648C93938D848D981306C00288F3897E
:10578000E02D80818F7D80830895CF93DF93EC019E
:10579000888D8823C9F0EA89FB89808185FD05C051
:1057A000A889B9898C9186FD0FC00FB607FCF5CF8B
:1057B000808185FFF2CFA889B9898C9185FFEDCFD3
:1057C000CE010E94A42BE7CFDF91CF910895CF9215
:1057D000DF92FF920F931F93CF93DF931F92CDB76A
:1057E000DEB76C0181E0D60158968C9358975B9692
:1057F0009C915B975C968C915C97981307C0509630
:10580000ED91FC915197808185FD2EC0F601038DAD
:1058100010E00F5F1F4F0F731127F02EF601848DDC
:10582000F81211C00FB607FCF9CFD6015096ED91D2
:10583000FC915197808185FFF1CFC60169830E9459
:10584000A42B6981EBCF838DE80FF11DE35AFF4F45
:105850006083D6015B960C935B975296ED91FC9119
:105860005397808180620CC0D6015696ED91FC91D1
:10587000579760835096ED91FC9151978081806499
:10588000808381E090E00F90DF91CF911F910F9185
:10589000FF90DF90CF900895BF92CF92DF92EF926A
:1058A000FF92CF93DF93EC016A017B01B22EE8896E
:1058B000F98982E08083411581EE58076105710501
:1058C000A1F060E079E08DE390E0A70196010E94ED
:1058D000AC3021503109410951095695479537950A
:1058E0002795211580E1380798F0E889F989108219
:1058F00060E874E88EE190E0A70196010E94AC3068
:1059000021503109410951095695479537952795F9
:10591000EC85FD853083EE85FF852083188EEC892C
:10592000FD89B082EA89FB89808180618083EA8970
:10593000FB89808188608083EA89FB898081806817
:105940008083EA89FB8980818F7D8083DF91CF917D
:10595000FF90EF90DF90CF90BF9008951F920F922D
:105960000FB60F9211242F938F939F93EF93FF9372
:10597000E091DD06F091DE068081E091E306F09192
:10598000E40682FD12C090818091E6068F5F8F73DE
:105990002091E706821751F0E091E606F0E0E3532C
:1059A000F94F958F8093E60601C08081FF91EF91BA
:1059B0009F918F912F910F900FBE0F901F90189570
:1059C0001F920F920FB60F9211242F933F934F9374
:1059D0005F936F937F938F939F93AF93BF93EF9357
:1059E000FF938DEC96E00E94A42BFF91EF91BF9165
:1059F000AF919F918F917F916F915F914F913F9167
:105A00002F910F900FBE0F901F9018958DEC96E080
:105A10000E94692B21E0892B09F420E0822F089550
:105A20001092D0061092CF0688EE93E0A0E0B0E08E
:105A30008093D1069093D206A093D306B093D40658
:105A400086E895E09093CE068093CD0685EC90E0B5
:105A50009093DA068093D90684EC90E09093DC066C
:105A60008093DB0680EC90E09093DE068093DD0669
:105A700081EC90E09093E0068093DF0682EC90E06A
:105A80009093E2068093E10686EC90E09093E40622
:105A90008093E3061092E6061092E7061092E8065D
:105AA0001092E906089508950E944E2A0E94532DEF
:105AB0000E944116C6E9DBE20E94E3172097E1F35A
:105AC0000E94962BF9CFCF92DF92EF92FF920F9325
:105AD0001F93CF93DF936C017A01EB01E60EF71E63
